{
  "_format": "hh-sol-artifact-1",
  "contractName": "SurfboardNFT",
  "sourceName": "contracts/SurfboardNFT.sol",
  "abi": [
    {
      "inputs": [],
      "stateMutability": "nonpayable",
      "type": "constructor"
    },
    {
      "inputs": [
        {
          "internalType": "address",
          "name": "sender",
          "type": "address"
        },
        {
          "internalType": "uint256",
          "name": "tokenId",
          "type": "uint256"
        },
        {
          "internalType": "address",
          "name": "owner",
          "type": "address"
        }
      ],
      "name": "ERC721IncorrectOwner",
      "type": "error"
    },
    {
      "inputs": [
        {
          "internalType": "address",
          "name": "operator",
          "type": "address"
        },
        {
          "internalType": "uint256",
          "name": "tokenId",
          "type": "uint256"
        }
      ],
      "name": "ERC721InsufficientApproval",
      "type": "error"
    },
    {
      "inputs": [
        {
          "internalType": "address",
          "name": "approver",
          "type": "address"
        }
      ],
      "name": "ERC721InvalidApprover",
      "type": "error"
    },
    {
      "inputs": [
        {
          "internalType": "address",
          "name": "operator",
          "type": "address"
        }
      ],
      "name": "ERC721InvalidOperator",
      "type": "error"
    },
    {
      "inputs": [
        {
          "internalType": "address",
          "name": "owner",
          "type": "address"
        }
      ],
      "name": "ERC721InvalidOwner",
      "type": "error"
    },
    {
      "inputs": [
        {
          "internalType": "address",
          "name": "receiver",
          "type": "address"
        }
      ],
      "name": "ERC721InvalidReceiver",
      "type": "error"
    },
    {
      "inputs": [
        {
          "internalType": "address",
          "name": "sender",
          "type": "address"
        }
      ],
      "name": "ERC721InvalidSender",
      "type": "error"
    },
    {
      "inputs": [
        {
          "internalType": "uint256",
          "name": "tokenId",
          "type": "uint256"
        }
      ],
      "name": "ERC721NonexistentToken",
      "type": "error"
    },
    {
      "anonymous": false,
      "inputs": [
        {
          "indexed": true,
          "internalType": "address",
          "name": "owner",
          "type": "address"
        },
        {
          "indexed": true,
          "internalType": "address",
          "name": "approved",
          "type": "address"
        },
        {
          "indexed": true,
          "internalType": "uint256",
          "name": "tokenId",
          "type": "uint256"
        }
      ],
      "name": "Approval",
      "type": "event"
    },
    {
      "anonymous": false,
      "inputs": [
        {
          "indexed": true,
          "internalType": "address",
          "name": "owner",
          "type": "address"
        },
        {
          "indexed": true,
          "internalType": "address",
          "name": "operator",
          "type": "address"
        },
        {
          "indexed": false,
          "internalType": "bool",
          "name": "approved",
          "type": "bool"
        }
      ],
      "name": "ApprovalForAll",
      "type": "event"
    },
    {
      "anonymous": false,
      "inputs": [
        {
          "indexed": true,
          "internalType": "address",
          "name": "from",
          "type": "address"
        },
        {
          "indexed": true,
          "internalType": "address",
          "name": "to",
          "type": "address"
        },
        {
          "indexed": true,
          "internalType": "uint256",
          "name": "tokenId",
          "type": "uint256"
        }
      ],
      "name": "Transfer",
      "type": "event"
    },
    {
      "inputs": [
        {
          "internalType": "address",
          "name": "to",
          "type": "address"
        },
        {
          "internalType": "uint256",
          "name": "tokenId",
          "type": "uint256"
        }
      ],
      "name": "approve",
      "outputs": [],
      "stateMutability": "nonpayable",
      "type": "function"
    },
    {
      "inputs": [
        {
          "internalType": "address",
          "name": "owner",
          "type": "address"
        }
      ],
      "name": "balanceOf",
      "outputs": [
        {
          "internalType": "uint256",
          "name": "",
          "type": "uint256"
        }
      ],
      "stateMutability": "view",
      "type": "function"
    },
    {
      "inputs": [
        {
          "internalType": "uint256",
          "name": "tokenId",
          "type": "uint256"
        }
      ],
      "name": "getApproved",
      "outputs": [
        {
          "internalType": "address",
          "name": "",
          "type": "address"
        }
      ],
      "stateMutability": "view",
      "type": "function"
    },
    {
      "inputs": [
        {
          "internalType": "address",
          "name": "owner",
          "type": "address"
        }
      ],
      "name": "getNFTsOwned",
      "outputs": [
        {
          "internalType": "uint256[]",
          "name": "",
          "type": "uint256[]"
        }
      ],
      "stateMutability": "view",
      "type": "function"
    },
    {
      "inputs": [
        {
          "internalType": "address",
          "name": "owner",
          "type": "address"
        },
        {
          "internalType": "address",
          "name": "operator",
          "type": "address"
        }
      ],
      "name": "isApprovedForAll",
      "outputs": [
        {
          "internalType": "bool",
          "name": "",
          "type": "bool"
        }
      ],
      "stateMutability": "view",
      "type": "function"
    },
    {
      "inputs": [
        {
          "internalType": "address",
          "name": "to",
          "type": "address"
        },
        {
          "internalType": "string",
          "name": "_tokenURI",
          "type": "string"
        }
      ],
      "name": "mintTo",
      "outputs": [
        {
          "internalType": "uint256",
          "name": "",
          "type": "uint256"
        }
      ],
      "stateMutability": "nonpayable",
      "type": "function"
    },
    {
      "inputs": [],
      "name": "name",
      "outputs": [
        {
          "internalType": "string",
          "name": "",
          "type": "string"
        }
      ],
      "stateMutability": "view",
      "type": "function"
    },
    {
      "inputs": [
        {
          "internalType": "uint256",
          "name": "tokenId",
          "type": "uint256"
        }
      ],
      "name": "ownerOf",
      "outputs": [
        {
          "internalType": "address",
          "name": "",
          "type": "address"
        }
      ],
      "stateMutability": "view",
      "type": "function"
    },
    {
      "inputs": [
        {
          "internalType": "address",
          "name": "from",
          "type": "address"
        },
        {
          "internalType": "address",
          "name": "to",
          "type": "address"
        },
        {
          "internalType": "uint256",
          "name": "tokenId",
          "type": "uint256"
        }
      ],
      "name": "safeTransferFrom",
      "outputs": [],
      "stateMutability": "nonpayable",
      "type": "function"
    },
    {
      "inputs": [
        {
          "internalType": "address",
          "name": "from",
          "type": "address"
        },
        {
          "internalType": "address",
          "name": "to",
          "type": "address"
        },
        {
          "internalType": "uint256",
          "name": "tokenId",
          "type": "uint256"
        },
        {
          "internalType": "bytes",
          "name": "data",
          "type": "bytes"
        }
      ],
      "name": "safeTransferFrom",
      "outputs": [],
      "stateMutability": "nonpayable",
      "type": "function"
    },
    {
      "inputs": [
        {
          "internalType": "address",
          "name": "operator",
          "type": "address"
        },
        {
          "internalType": "bool",
          "name": "approved",
          "type": "bool"
        }
      ],
      "name": "setApprovalForAll",
      "outputs": [],
      "stateMutability": "nonpayable",
      "type": "function"
    },
    {
      "inputs": [
        {
          "internalType": "bytes4",
          "name": "interfaceId",
          "type": "bytes4"
        }
      ],
      "name": "supportsInterface",
      "outputs": [
        {
          "internalType": "bool",
          "name": "",
          "type": "bool"
        }
      ],
      "stateMutability": "view",
      "type": "function"
    },
    {
      "inputs": [],
      "name": "symbol",
      "outputs": [
        {
          "internalType": "string",
          "name": "",
          "type": "string"
        }
      ],
      "stateMutability": "view",
      "type": "function"
    },
    {
      "inputs": [
        {
          "internalType": "uint256",
          "name": "tokenId",
          "type": "uint256"
        }
      ],
      "name": "tokenURI",
      "outputs": [
        {
          "internalType": "string",
          "name": "",
          "type": "string"
        }
      ],
      "stateMutability": "view",
      "type": "function"
    },
    {
      "inputs": [
        {
          "internalType": "address",
          "name": "from",
          "type": "address"
        },
        {
          "internalType": "address",
          "name": "to",
          "type": "address"
        },
        {
          "internalType": "uint256",
          "name": "tokenId",
          "type": "uint256"
        }
      ],
      "name": "transferFrom",
      "outputs": [],
      "stateMutability": "nonpayable",
      "type": "function"
    }
  ],
  "bytecode": "0x60806040523480156200001157600080fd5b506040518060400160405280600c81526020017f53757266626f6172644e465400000000000000000000000000000000000000008152506040518060400160405280600481526020017f535552460000000000000000000000000000000000000000000000000000000081525081600090816200008f919062000324565b508060019081620000a1919062000324565b5050506200040b565b600081519050919050565b7f4e487b7100000000000000000000000000000000000000000000000000000000600052604160045260246000fd5b7f4e487b7100000000000000000000000000000000000000000000000000000000600052602260045260246000fd5b600060028204905060018216806200012c57607f821691505b602082108103620001425762000141620000e4565b5b50919050565b60008190508160005260206000209050919050565b60006020601f8301049050919050565b600082821b905092915050565b600060088302620001ac7fffffffffffffffffffffffffffffffffffffffffffffffffffffffffffffffff826200016d565b620001b886836200016d565b95508019841693508086168417925050509392505050565b6000819050919050565b6000819050919050565b600062000205620001ff620001f984620001d0565b620001da565b620001d0565b9050919050565b6000819050919050565b6200022183620001e4565b6200023962000230826200020c565b8484546200017a565b825550505050565b600090565b6200025062000241565b6200025d81848462000216565b505050565b5b8181101562000285576200027960008262000246565b60018101905062000263565b5050565b601f821115620002d4576200029e8162000148565b620002a9846200015d565b81016020851015620002b9578190505b620002d1620002c8856200015d565b83018262000262565b50505b505050565b600082821c905092915050565b6000620002f960001984600802620002d9565b1980831691505092915050565b6000620003148383620002e6565b9150826002028217905092915050565b6200032f82620000aa565b67ffffffffffffffff8111156200034b576200034a620000b5565b5b62000357825462000113565b6200036482828562000289565b600060209050601f8311600181146200039c576000841562000387578287015190505b62000393858262000306565b86555062000403565b601f198416620003ac8662000148565b60005b82811015620003d657848901518255600182019150602085019450602081019050620003af565b86831015620003f65784890151620003f2601f891682620002e6565b8355505b6001600288020188555050505b505050505050565b612740806200041b6000396000f3fe608060405234801561001057600080fd5b50600436106100f45760003560e01c80636352211e11610097578063a22cb46511610066578063a22cb465146102a9578063b88d4fde146102c5578063c87b56dd146102e1578063e985e9c514610311576100f4565b80636352211e146101fb57806367d9c4881461022b57806370a082311461025b57806395d89b411461028b576100f4565b8063081812fc116100d3578063081812fc14610177578063095ea7b3146101a757806323b872dd146101c357806342842e0e146101df576100f4565b806275a317146100f957806301ffc9a71461012957806306fdde0314610159575b600080fd5b610113600480360381019061010e9190611add565b610341565b6040516101209190611b52565b60405180910390f35b610143600480360381019061013e9190611bc5565b61037b565b6040516101509190611c0d565b60405180910390f35b61016161045d565b60405161016e9190611ca7565b60405180910390f35b610191600480360381019061018c9190611cf5565b6104ef565b60405161019e9190611d31565b60405180910390f35b6101c160048036038101906101bc9190611d4c565b61050b565b005b6101dd60048036038101906101d89190611d8c565b610521565b005b6101f960048036038101906101f49190611d8c565b610623565b005b61021560048036038101906102109190611cf5565b610643565b6040516102229190611d31565b60405180910390f35b61024560048036038101906102409190611ddf565b610655565b6040516102529190611eca565b60405180910390f35b61027560048036038101906102709190611ddf565b6106a5565b6040516102829190611b52565b60405180910390f35b61029361075f565b6040516102a09190611ca7565b60405180910390f35b6102c360048036038101906102be9190611f18565b6107f1565b005b6102df60048036038101906102da9190611ff9565b610807565b005b6102fb60048036038101906102f69190611cf5565b610824565b6040516103089190611ca7565b60405180910390f35b61032b6004803603810190610326919061207c565b610917565b6040516103389190611c0d565b60405180910390f35b60008060066000815480929190610357906120eb565b91905055905061036784826109ab565b61037181846109c9565b8091505092915050565b60007f80ac58cd000000000000000000000000000000000000000000000000000000007bffffffffffffffffffffffffffffffffffffffffffffffffffffffff1916827bffffffffffffffffffffffffffffffffffffffffffffffffffffffff1916148061044657507f5b5e139f000000000000000000000000000000000000000000000000000000007bffffffffffffffffffffffffffffffffffffffffffffffffffffffff1916827bffffffffffffffffffffffffffffffffffffffffffffffffffffffff1916145b80610456575061045582610a36565b5b9050919050565b60606000805461046c90612162565b80601f016020809104026020016040519081016040528092919081815260200182805461049890612162565b80156104e55780601f106104ba576101008083540402835291602001916104e5565b820191906000526020600020905b8154815290600101906020018083116104c857829003601f168201915b5050505050905090565b60006104fa82610aa0565b5061050482610b28565b9050919050565b61051d8282610518610b65565b610b6d565b5050565b600073ffffffffffffffffffffffffffffffffffffffff168273ffffffffffffffffffffffffffffffffffffffff16036105935760006040517f64a0ae9200000000000000000000000000000000000000000000000000000000815260040161058a9190611d31565b60405180910390fd5b60006105a783836105a2610b65565b610b7f565b90508373ffffffffffffffffffffffffffffffffffffffff168173ffffffffffffffffffffffffffffffffffffffff161461061d578382826040517f64283d7b00000000000000000000000000000000000000000000000000000000815260040161061493929190612193565b60405180910390fd5b50505050565b61063e83838360405180602001604052806000815250610807565b505050565b600061064e82610aa0565b9050919050565b606061069e600760008473ffffffffffffffffffffffffffffffffffffffff1673ffffffffffffffffffffffffffffffffffffffff168152602001908152602001600020610cb0565b9050919050565b60008073ffffffffffffffffffffffffffffffffffffffff168273ffffffffffffffffffffffffffffffffffffffff16036107185760006040517f89c62b6400000000000000000000000000000000000000000000000000000000815260040161070f9190611d31565b60405180910390fd5b600360008373ffffffffffffffffffffffffffffffffffffffff1673ffffffffffffffffffffffffffffffffffffffff168152602001908152602001600020549050919050565b60606001805461076e90612162565b80601f016020809104026020016040519081016040528092919081815260200182805461079a90612162565b80156107e75780601f106107bc576101008083540402835291602001916107e7565b820191906000526020600020905b8154815290600101906020018083116107ca57829003601f168201915b5050505050905090565b6108036107fc610b65565b8383610cd1565b5050565b610812848484610521565b61081e84848484610e40565b50505050565b606061082f82610ff7565b61086e576040517f08c379a00000000000000000000000000000000000000000000000000000000081526004016108659061223c565b60405180910390fd5b600060086000848152602001908152602001600020805461088e90612162565b80601f01602080910402602001604051908101604052809291908181526020018280546108ba90612162565b80156109075780601f106108dc57610100808354040283529160200191610907565b820191906000526020600020905b8154815290600101906020018083116108ea57829003601f168201915b5050505050905080915050919050565b6000600560008473ffffffffffffffffffffffffffffffffffffffff1673ffffffffffffffffffffffffffffffffffffffff16815260200190815260200160002060008373ffffffffffffffffffffffffffffffffffffffff1673ffffffffffffffffffffffffffffffffffffffff16815260200190815260200160002060009054906101000a900460ff16905092915050565b6109c5828260405180602001604052806000815250611038565b5050565b6109d282610ff7565b610a11576040517f08c379a0000000000000000000000000000000000000000000000000000000008152600401610a08906122ce565b60405180910390fd5b80600860008481526020019081526020016000209081610a31919061249a565b505050565b60007f01ffc9a7000000000000000000000000000000000000000000000000000000007bffffffffffffffffffffffffffffffffffffffffffffffffffffffff1916827bffffffffffffffffffffffffffffffffffffffffffffffffffffffff1916149050919050565b600080610aac83611054565b9050600073ffffffffffffffffffffffffffffffffffffffff168173ffffffffffffffffffffffffffffffffffffffff1603610b1f57826040517f7e273289000000000000000000000000000000000000000000000000000000008152600401610b169190611b52565b60405180910390fd5b80915050919050565b60006004600083815260200190815260200160002060009054906101000a900473ffffffffffffffffffffffffffffffffffffffff169050919050565b600033905090565b610b7a8383836001611091565b505050565b600080610b8b84611054565b9050600073ffffffffffffffffffffffffffffffffffffffff168173ffffffffffffffffffffffffffffffffffffffff1614610c1457610c1284600760008473ffffffffffffffffffffffffffffffffffffffff1673ffffffffffffffffffffffffffffffffffffffff16815260200190815260200160002061125690919063ffffffff16565b505b600073ffffffffffffffffffffffffffffffffffffffff168573ffffffffffffffffffffffffffffffffffffffff1614610c9b57610c9984600760008873ffffffffffffffffffffffffffffffffffffffff1673ffffffffffffffffffffffffffffffffffffffff16815260200190815260200160002061127090919063ffffffff16565b505b610ca685858561128a565b9150509392505050565b60606000610cc0836000016114a4565b905060608190508092505050919050565b600073ffffffffffffffffffffffffffffffffffffffff168273ffffffffffffffffffffffffffffffffffffffff1603610d4257816040517f5b08ba18000000000000000000000000000000000000000000000000000000008152600401610d399190611d31565b60405180910390fd5b80600560008573ffffffffffffffffffffffffffffffffffffffff1673ffffffffffffffffffffffffffffffffffffffff16815260200190815260200160002060008473ffffffffffffffffffffffffffffffffffffffff1673ffffffffffffffffffffffffffffffffffffffff16815260200190815260200160002060006101000a81548160ff0219169083151502179055508173ffffffffffffffffffffffffffffffffffffffff168373ffffffffffffffffffffffffffffffffffffffff167f17307eab39ab6107e8899845ad3d59bd9653f200f220920489ca2b5937696c3183604051610e339190611c0d565b60405180910390a3505050565b60008373ffffffffffffffffffffffffffffffffffffffff163b1115610ff1578273ffffffffffffffffffffffffffffffffffffffff1663150b7a02610e84610b65565b8685856040518563ffffffff1660e01b8152600401610ea694939291906125c1565b6020604051808303816000875af1925050508015610ee257506040513d601f19601f82011682018060405250810190610edf9190612622565b60015b610f66573d8060008114610f12576040519150601f19603f3d011682016040523d82523d6000602084013e610f17565b606091505b506000815103610f5e57836040517f64a0ae92000000000000000000000000000000000000000000000000000000008152600401610f559190611d31565b60405180910390fd5b805181602001fd5b63150b7a0260e01b7bffffffffffffffffffffffffffffffffffffffffffffffffffffffff1916817bffffffffffffffffffffffffffffffffffffffffffffffffffffffff191614610fef57836040517f64a0ae92000000000000000000000000000000000000000000000000000000008152600401610fe69190611d31565b60405180910390fd5b505b50505050565b60008073ffffffffffffffffffffffffffffffffffffffff1661101983611054565b73ffffffffffffffffffffffffffffffffffffffff1614159050919050565b6110428383611500565b61104f6000848484610e40565b505050565b60006002600083815260200190815260200160002060009054906101000a900473ffffffffffffffffffffffffffffffffffffffff169050919050565b80806110ca5750600073ffffffffffffffffffffffffffffffffffffffff168273ffffffffffffffffffffffffffffffffffffffff1614155b156111fe5760006110da84610aa0565b9050600073ffffffffffffffffffffffffffffffffffffffff168373ffffffffffffffffffffffffffffffffffffffff161415801561114557508273ffffffffffffffffffffffffffffffffffffffff168173ffffffffffffffffffffffffffffffffffffffff1614155b801561115857506111568184610917565b155b1561119a57826040517fa9fbf51f0000000000000000000000000000000000000000000000000000000081526004016111919190611d31565b60405180910390fd5b81156111fc57838573ffffffffffffffffffffffffffffffffffffffff168273ffffffffffffffffffffffffffffffffffffffff167f8c5be1e5ebec7d5bd14f71427d1e84f3dd0314c0f7b2291e5b200ac8c7c3b92560405160405180910390a45b505b836004600085815260200190815260200160002060006101000a81548173ffffffffffffffffffffffffffffffffffffffff021916908373ffffffffffffffffffffffffffffffffffffffff16021790555050505050565b6000611268836000018360001b6115f9565b905092915050565b6000611282836000018360001b61170d565b905092915050565b60008061129684611054565b9050600073ffffffffffffffffffffffffffffffffffffffff168373ffffffffffffffffffffffffffffffffffffffff16146112d8576112d781848661177d565b5b600073ffffffffffffffffffffffffffffffffffffffff168173ffffffffffffffffffffffffffffffffffffffff16146113695761131a600085600080611091565b6001600360008373ffffffffffffffffffffffffffffffffffffffff1673ffffffffffffffffffffffffffffffffffffffff168152602001908152602001600020600082825403925050819055505b600073ffffffffffffffffffffffffffffffffffffffff168573ffffffffffffffffffffffffffffffffffffffff16146113ec576001600360008773ffffffffffffffffffffffffffffffffffffffff1673ffffffffffffffffffffffffffffffffffffffff168152602001908152602001600020600082825401925050819055505b846002600086815260200190815260200160002060006101000a81548173ffffffffffffffffffffffffffffffffffffffff021916908373ffffffffffffffffffffffffffffffffffffffff160217905550838573ffffffffffffffffffffffffffffffffffffffff168273ffffffffffffffffffffffffffffffffffffffff167fddf252ad1be2c89b69c2b068fc378daa952ba7f163c4a11628f55a4df523b3ef60405160405180910390a4809150509392505050565b6060816000018054806020026020016040519081016040528092919081815260200182805480156114f457602002820191906000526020600020905b8154815260200190600101908083116114e0575b50505050509050919050565b600073ffffffffffffffffffffffffffffffffffffffff168273ffffffffffffffffffffffffffffffffffffffff16036115725760006040517f64a0ae920000000000000000000000000000000000000000000000000000000081526004016115699190611d31565b60405180910390fd5b600061158083836000610b7f565b9050600073ffffffffffffffffffffffffffffffffffffffff168173ffffffffffffffffffffffffffffffffffffffff16146115f45760006040517f73c6ac6e0000000000000000000000000000000000000000000000000000000081526004016115eb9190611d31565b60405180910390fd5b505050565b6000808360010160008481526020019081526020016000205490506000811461170157600060018261162b919061264f565b9050600060018660000180549050611643919061264f565b90508082146116b257600086600001828154811061166457611663612683565b5b906000526020600020015490508087600001848154811061168857611687612683565b5b90600052602060002001819055508387600101600083815260200190815260200160002081905550505b856000018054806116c6576116c56126b2565b5b600190038181906000526020600020016000905590558560010160008681526020019081526020016000206000905560019350505050611707565b60009150505b92915050565b60006117198383611841565b611772578260000182908060018154018082558091505060019003906000526020600020016000909190919091505582600001805490508360010160008481526020019081526020016000208190555060019050611777565b600090505b92915050565b611788838383611864565b61183c57600073ffffffffffffffffffffffffffffffffffffffff168373ffffffffffffffffffffffffffffffffffffffff16036117fd57806040517f7e2732890000000000000000000000000000000000000000000000000000000081526004016117f49190611b52565b60405180910390fd5b81816040517f177e802f0000000000000000000000000000000000000000000000000000000081526004016118339291906126e1565b60405180910390fd5b505050565b600080836001016000848152602001908152602001600020541415905092915050565b60008073ffffffffffffffffffffffffffffffffffffffff168373ffffffffffffffffffffffffffffffffffffffff161415801561191c57508273ffffffffffffffffffffffffffffffffffffffff168473ffffffffffffffffffffffffffffffffffffffff1614806118dd57506118dc8484610917565b5b8061191b57508273ffffffffffffffffffffffffffffffffffffffff1661190383610b28565b73ffffffffffffffffffffffffffffffffffffffff16145b5b90509392505050565b6000604051905090565b600080fd5b600080fd5b600073ffffffffffffffffffffffffffffffffffffffff82169050919050565b600061196482611939565b9050919050565b61197481611959565b811461197f57600080fd5b50565b6000813590506119918161196b565b92915050565b600080fd5b600080fd5b6000601f19601f8301169050919050565b7f4e487b7100000000000000000000000000000000000000000000000000000000600052604160045260246000fd5b6119ea826119a1565b810181811067ffffffffffffffff82111715611a0957611a086119b2565b5b80604052505050565b6000611a1c611925565b9050611a2882826119e1565b919050565b600067ffffffffffffffff821115611a4857611a476119b2565b5b611a51826119a1565b9050602081019050919050565b82818337600083830152505050565b6000611a80611a7b84611a2d565b611a12565b905082815260208101848484011115611a9c57611a9b61199c565b5b611aa7848285611a5e565b509392505050565b600082601f830112611ac457611ac3611997565b5b8135611ad4848260208601611a6d565b91505092915050565b60008060408385031215611af457611af361192f565b5b6000611b0285828601611982565b925050602083013567ffffffffffffffff811115611b2357611b22611934565b5b611b2f85828601611aaf565b9150509250929050565b6000819050919050565b611b4c81611b39565b82525050565b6000602082019050611b676000830184611b43565b92915050565b60007fffffffff0000000000000000000000000000000000000000000000000000000082169050919050565b611ba281611b6d565b8114611bad57600080fd5b50565b600081359050611bbf81611b99565b92915050565b600060208284031215611bdb57611bda61192f565b5b6000611be984828501611bb0565b91505092915050565b60008115159050919050565b611c0781611bf2565b82525050565b6000602082019050611c226000830184611bfe565b92915050565b600081519050919050565b600082825260208201905092915050565b60005b83811015611c62578082015181840152602081019050611c47565b60008484015250505050565b6000611c7982611c28565b611c838185611c33565b9350611c93818560208601611c44565b611c9c816119a1565b840191505092915050565b60006020820190508181036000830152611cc18184611c6e565b905092915050565b611cd281611b39565b8114611cdd57600080fd5b50565b600081359050611cef81611cc9565b92915050565b600060208284031215611d0b57611d0a61192f565b5b6000611d1984828501611ce0565b91505092915050565b611d2b81611959565b82525050565b6000602082019050611d466000830184611d22565b92915050565b60008060408385031215611d6357611d6261192f565b5b6000611d7185828601611982565b9250506020611d8285828601611ce0565b9150509250929050565b600080600060608486031215611da557611da461192f565b5b6000611db386828701611982565b9350506020611dc486828701611982565b9250506040611dd586828701611ce0565b9150509250925092565b600060208284031215611df557611df461192f565b5b6000611e0384828501611982565b91505092915050565b600081519050919050565b600082825260208201905092915050565b6000819050602082019050919050565b611e4181611b39565b82525050565b6000611e538383611e38565b60208301905092915050565b6000602082019050919050565b6000611e7782611e0c565b611e818185611e17565b9350611e8c83611e28565b8060005b83811015611ebd578151611ea48882611e47565b9750611eaf83611e5f565b925050600181019050611e90565b5085935050505092915050565b60006020820190508181036000830152611ee48184611e6c565b905092915050565b611ef581611bf2565b8114611f0057600080fd5b50565b600081359050611f1281611eec565b92915050565b60008060408385031215611f2f57611f2e61192f565b5b6000611f3d85828601611982565b9250506020611f4e85828601611f03565b9150509250929050565b600067ffffffffffffffff821115611f7357611f726119b2565b5b611f7c826119a1565b9050602081019050919050565b6000611f9c611f9784611f58565b611a12565b905082815260208101848484011115611fb857611fb761199c565b5b611fc3848285611a5e565b509392505050565b600082601f830112611fe057611fdf611997565b5b8135611ff0848260208601611f89565b91505092915050565b600080600080608085870312156120135761201261192f565b5b600061202187828801611982565b945050602061203287828801611982565b935050604061204387828801611ce0565b925050606085013567ffffffffffffffff81111561206457612063611934565b5b61207087828801611fcb565b91505092959194509250565b600080604083850312156120935761209261192f565b5b60006120a185828601611982565b92505060206120b285828601611982565b9150509250929050565b7f4e487b7100000000000000000000000000000000000000000000000000000000600052601160045260246000fd5b60006120f682611b39565b91507fffffffffffffffffffffffffffffffffffffffffffffffffffffffffffffffff8203612128576121276120bc565b5b600182019050919050565b7f4e487b7100000000000000000000000000000000000000000000000000000000600052602260045260246000fd5b6000600282049050600182168061217a57607f821691505b60208210810361218d5761218c612133565b5b50919050565b60006060820190506121a86000830186611d22565b6121b56020830185611b43565b6121c26040830184611d22565b949350505050565b7f4552433732314d657461646174613a2055524920717565727920666f72206e6f60008201527f6e6578697374656e7420746f6b656e0000000000000000000000000000000000602082015250565b6000612226602f83611c33565b9150612231826121ca565b604082019050919050565b6000602082019050818103600083015261225581612219565b9050919050565b7f4552433732314d657461646174613a2055524920736574206f66206e6f6e657860008201527f697374656e7420746f6b656e0000000000000000000000000000000000000000602082015250565b60006122b8602c83611c33565b91506122c38261225c565b604082019050919050565b600060208201905081810360008301526122e7816122ab565b9050919050565b60008190508160005260206000209050919050565b60006020601f8301049050919050565b600082821b905092915050565b6000600883026123507fffffffffffffffffffffffffffffffffffffffffffffffffffffffffffffffff82612313565b61235a8683612313565b95508019841693508086168417925050509392505050565b6000819050919050565b600061239761239261238d84611b39565b612372565b611b39565b9050919050565b6000819050919050565b6123b18361237c565b6123c56123bd8261239e565b848454612320565b825550505050565b600090565b6123da6123cd565b6123e58184846123a8565b505050565b5b81811015612409576123fe6000826123d2565b6001810190506123eb565b5050565b601f82111561244e5761241f816122ee565b61242884612303565b81016020851015612437578190505b61244b61244385612303565b8301826123ea565b50505b505050565b600082821c905092915050565b600061247160001984600802612453565b1980831691505092915050565b600061248a8383612460565b9150826002028217905092915050565b6124a382611c28565b67ffffffffffffffff8111156124bc576124bb6119b2565b5b6124c68254612162565b6124d182828561240d565b600060209050601f83116001811461250457600084156124f2578287015190505b6124fc858261247e565b865550612564565b601f198416612512866122ee565b60005b8281101561253a57848901518255600182019150602085019450602081019050612515565b868310156125575784890151612553601f891682612460565b8355505b6001600288020188555050505b505050505050565b600081519050919050565b600082825260208201905092915050565b60006125938261256c565b61259d8185612577565b93506125ad818560208601611c44565b6125b6816119a1565b840191505092915050565b60006080820190506125d66000830187611d22565b6125e36020830186611d22565b6125f06040830185611b43565b81810360608301526126028184612588565b905095945050505050565b60008151905061261c81611b99565b92915050565b6000602082840312156126385761263761192f565b5b60006126468482850161260d565b91505092915050565b600061265a82611b39565b915061266583611b39565b925082820390508181111561267d5761267c6120bc565b5b92915050565b7f4e487b7100000000000000000000000000000000000000000000000000000000600052603260045260246000fd5b7f4e487b7100000000000000000000000000000000000000000000000000000000600052603160045260246000fd5b60006040820190506126f66000830185611d22565b6127036020830184611b43565b939250505056fea26469706673582212206205eb1872bd958c62c75eb3a699f49c4f2d06469c30771101b6938761f33afe64736f6c63430008180033",
  "linkReferences": {},
  "deployedLinkReferences": {}
}